{
  "contractName": "StudentMarks",
  "abi": [
    {
      "anonymous": false,
      "inputs": [
        {
          "indexed": true,
          "internalType": "uint256",
          "name": "studentId",
          "type": "uint256"
        },
        {
          "indexed": false,
          "internalType": "string",
          "name": "name",
          "type": "string"
        },
        {
          "indexed": false,
          "internalType": "uint256[]",
          "name": "marks",
          "type": "uint256[]"
        },
        {
          "indexed": false,
          "internalType": "bytes32",
          "name": "merkleRoot",
          "type": "bytes32"
        },
        {
          "indexed": false,
          "internalType": "uint256",
          "name": "timestamp",
          "type": "uint256"
        }
      ],
      "name": "StudentAdded",
      "type": "event"
    },
    {
      "inputs": [],
      "name": "studentCount",
      "outputs": [
        {
          "internalType": "uint256",
          "name": "",
          "type": "uint256"
        }
      ],
      "stateMutability": "view",
      "type": "function",
      "constant": true
    },
    {
      "inputs": [
        {
          "internalType": "uint256",
          "name": "",
          "type": "uint256"
        }
      ],
      "name": "students",
      "outputs": [
        {
          "internalType": "string",
          "name": "name",
          "type": "string"
        },
        {
          "internalType": "bytes32",
          "name": "merkleRoot",
          "type": "bytes32"
        },
        {
          "internalType": "uint256",
          "name": "timestamp",
          "type": "uint256"
        }
      ],
      "stateMutability": "view",
      "type": "function",
      "constant": true
    },
    {
      "inputs": [
        {
          "internalType": "string",
          "name": "_name",
          "type": "string"
        },
        {
          "internalType": "uint256[]",
          "name": "_marks",
          "type": "uint256[]"
        }
      ],
      "name": "addStudent",
      "outputs": [],
      "stateMutability": "nonpayable",
      "type": "function"
    }
  ],
  "bytecode": "0x608060405234801561001057600080fd5b50611096806100206000396000f3fe608060405234801561001057600080fd5b506004361061005e576000357c01000000000000000000000000000000000000000000000000000000009004806306ead22e146100635780633515ad0d14610095578063e581f9ee146100b1575b600080fd5b61007d600480360381019061007891906105bc565b6100cf565b60405161008c939291906106a1565b60405180910390f35b6100af60048036038101906100aa91906108dc565b610181565b005b6100b96102ae565b6040516100c69190610954565b60405180910390f35b60006020528060005260406000206000915090508060000180546100f29061099e565b80601f016020809104026020016040519081016040528092919081815260200182805461011e9061099e565b801561016b5780601f106101405761010080835404028352916020019161016b565b820191906000526020600020905b81548152906001019060200180831161014e57829003601f168201915b5050505050908060020154908060030154905083565b60008151116101c5576040517f08c379a00000000000000000000000000000000000000000000000000000000081526004016101bc90610a41565b60405180910390fd5b60006101d0826102b4565b9050600160008154809291906101e590610a90565b9190505550604051806080016040528084815260200183815260200182815260200142815250600080600154815260200190815260200160002060008201518160000190816102349190610c8a565b506020820151816001019080519060200190610251929190610508565b5060408201518160020155606082015181600301559050506001547f9568b4e30ca25d90d07deacc6eba703dfc7d96ba1efd56e7529c4ddc54221da7848484426040516102a19493929190610e1a565b60405180910390a2505050565b60015481565b600080825167ffffffffffffffff8111156102d2576102d16106e9565b5b6040519080825280602002602001820160405280156103005781602001602082028036833780820191505090505b50905060005b83518110156103825783818151811061032257610321610e6d565b5b602002602001015160405160200161033a9190610ebd565b6040516020818303038152906040528051906020012082828151811061036357610362610e6d565b5b602002602001018181525050808061037a90610a90565b915050610306565b5061038c81610394565b915050919050565b60005b6001825111156104e55760008251905060005b6002826103b79190610f07565b81101561047157838160026103cc9190610f38565b815181106103dd576103dc610e6d565b5b60200260200101518460018360026103f59190610f38565b6103ff9190610f7a565b815181106104105761040f610e6d565b5b6020026020010151604051602001610429929190610fcf565b6040516020818303038152906040528051906020012084828151811061045257610451610e6d565b5b602002602001018181525050808061046990610a90565b9150506103aa565b5060006002826104819190610ffb565b146104d95782600182610494919061102c565b815181106104a5576104a4610e6d565b5b6020026020010151836002836104bb9190610f07565b815181106104cc576104cb610e6d565b5b6020026020010181815250505b60028104835250610397565b816000815181106104f9576104f8610e6d565b5b60200260200101519050919050565b828054828255906000526020600020908101928215610544579160200282015b82811115610543578251825591602001919060010190610528565b5b5090506105519190610555565b5090565b5b8082111561056e576000816000905550600101610556565b5090565b6000604051905090565b600080fd5b600080fd5b6000819050919050565b61059981610586565b81146105a457600080fd5b50565b6000813590506105b681610590565b92915050565b6000602082840312156105d2576105d161057c565b5b60006105e0848285016105a7565b91505092915050565b600081519050919050565b600082825260208201905092915050565b60005b83811015610623578082015181840152602081019050610608565b60008484015250505050565b6000601f19601f8301169050919050565b600061064b826105e9565b61065581856105f4565b9350610665818560208601610605565b61066e8161062f565b840191505092915050565b6000819050919050565b61068c81610679565b82525050565b61069b81610586565b82525050565b600060608201905081810360008301526106bb8186610640565b90506106ca6020830185610683565b6106d76040830184610692565b949350505050565b600080fd5b600080fd5b7f4e487b7100000000000000000000000000000000000000000000000000000000600052604160045260246000fd5b6107218261062f565b810181811067ffffffffffffffff821117156107405761073f6106e9565b5b80604052505050565b6000610753610572565b905061075f8282610718565b919050565b600067ffffffffffffffff82111561077f5761077e6106e9565b5b6107888261062f565b9050602081019050919050565b82818337600083830152505050565b60006107b76107b284610764565b610749565b9050828152602081018484840111156107d3576107d26106e4565b5b6107de848285610795565b509392505050565b600082601f8301126107fb576107fa6106df565b5b813561080b8482602086016107a4565b91505092915050565b600067ffffffffffffffff82111561082f5761082e6106e9565b5b602082029050602081019050919050565b600080fd5b600061085861085384610814565b610749565b9050808382526020820190506020840283018581111561087b5761087a610840565b5b835b818110156108a4578061089088826105a7565b84526020840193505060208101905061087d565b5050509392505050565b600082601f8301126108c3576108c26106df565b5b81356108d3848260208601610845565b91505092915050565b600080604083850312156108f3576108f261057c565b5b600083013567ffffffffffffffff81111561091157610910610581565b5b61091d858286016107e6565b925050602083013567ffffffffffffffff81111561093e5761093d610581565b5b61094a858286016108ae565b9150509250929050565b60006020820190506109696000830184610692565b92915050565b7f4e487b7100000000000000000000000000000000000000000000000000000000600052602260045260246000fd5b600060028204905060018216806109b657607f821691505b6020821081036109c9576109c861096f565b5b50919050565b7f4174206c65617374206f6e65206d61726b2073686f756c642062652070726f7660008201527f6964656400000000000000000000000000000000000000000000000000000000602082015250565b6000610a2b6024836105f4565b9150610a36826109cf565b604082019050919050565b60006020820190508181036000830152610a5a81610a1e565b9050919050565b7f4e487b7100000000000000000000000000000000000000000000000000000000600052601160045260246000fd5b6000610a9b82610586565b91507fffffffffffffffffffffffffffffffffffffffffffffffffffffffffffffffff8203610acd57610acc610a61565b5b600182019050919050565b60008190508160005260206000209050919050565b60006020601f8301049050919050565b60008160020a8302905092915050565b600060088302610b3d7fffffffffffffffffffffffffffffffffffffffffffffffffffffffffffffffff82610afd565b610b478683610afd565b95508019841693508086168417925050509392505050565b6000819050919050565b6000610b84610b7f610b7a84610586565b610b5f565b610586565b9050919050565b6000819050919050565b610b9e83610b69565b610bb2610baa82610b8b565b848454610b0d565b825550505050565b600090565b610bc7610bba565b610bd2818484610b95565b505050565b5b81811015610bf657610beb600082610bbf565b600181019050610bd8565b5050565b601f821115610c3b57610c0c81610ad8565b610c1584610aed565b81016020851015610c24578190505b610c38610c3085610aed565b830182610bd7565b50505b505050565b60008160020a8304905092915050565b6000610c6160001984600802610c40565b1980831691505092915050565b6000610c7a8383610c50565b9150826002028217905092915050565b610c93826105e9565b67ffffffffffffffff811115610cac57610cab6106e9565b5b610cb6825461099e565b610cc1828285610bfa565b600060209050601f831160018114610cf45760008415610ce2578287015190505b610cec8582610c6e565b865550610d54565b601f198416610d0286610ad8565b60005b82811015610d2a57848901518255600182019150602085019450602081019050610d05565b86831015610d475784890151610d43601f891682610c50565b8355505b6001600288020188555050505b505050505050565b600081519050919050565b600082825260208201905092915050565b6000819050602082019050919050565b610d9181610586565b82525050565b6000610da38383610d88565b60208301905092915050565b6000602082019050919050565b6000610dc782610d5c565b610dd18185610d67565b9350610ddc83610d78565b8060005b83811015610e0d578151610df48882610d97565b9750610dff83610daf565b925050600181019050610de0565b5085935050505092915050565b60006080820190508181036000830152610e348187610640565b90508181036020830152610e488186610dbc565b9050610e576040830185610683565b610e646060830184610692565b95945050505050565b7f4e487b7100000000000000000000000000000000000000000000000000000000600052603260045260246000fd5b6000819050919050565b610eb7610eb282610586565b610e9c565b82525050565b6000610ec98284610ea6565b60208201915081905092915050565b7f4e487b7100000000000000000000000000000000000000000000000000000000600052601260045260246000fd5b6000610f1282610586565b9150610f1d83610586565b925082610f2d57610f2c610ed8565b5b828204905092915050565b6000610f4382610586565b9150610f4e83610586565b9250828202610f5c81610586565b91508282048414831517610f7357610f72610a61565b5b5092915050565b6000610f8582610586565b9150610f9083610586565b9250828201905080821115610fa857610fa7610a61565b5b92915050565b6000819050919050565b610fc9610fc482610679565b610fae565b82525050565b6000610fdb8285610fb8565b602082019150610feb8284610fb8565b6020820191508190509392505050565b600061100682610586565b915061101183610586565b92508261102157611020610ed8565b5b828206905092915050565b600061103782610586565b915061104283610586565b925082820390508181111561105a57611059610a61565b5b9291505056fea26469706673582212201860a334eefeff00b4f4a98d30f0144acbba772f8c29809cea6411ab0df5eab164736f6c63430008150033",
  "immutableReferences": {},
  "source": "// SPDX-License-Identifier: MIT\r\npragma solidity ^0.8.0;\r\n\r\ncontract StudentMarks {\r\n    struct Student {\r\n        string name;\r\n        uint[] marks;\r\n        bytes32 merkleRoot;\r\n        uint timestamp;\r\n    }\r\n\r\n    mapping(uint => Student) public students;\r\n    uint public studentCount;\r\n\r\n    // Event to log the addition of a new student\r\n    event StudentAdded(uint indexed studentId, string name, uint[] marks, bytes32 merkleRoot, uint timestamp);\r\n\r\n    function addStudent(string memory _name, uint[] memory _marks) public {\r\n        require(_marks.length > 0, \"At least one mark should be provided\");\r\n\r\n        // Calculate Merkle root from marks\r\n        bytes32 merkleRoot = calculateMerkleRoot(_marks);\r\n\r\n        // Add student to mapping\r\n        studentCount++;\r\n        students[studentCount] = Student(_name, _marks, merkleRoot, block.timestamp);\r\n\r\n        // Emit event\r\n        emit StudentAdded(studentCount, _name, _marks, merkleRoot, block.timestamp);\r\n    }\r\n\r\n    // Function to calculate Merkle root from marks\r\n    function calculateMerkleRoot(uint[] memory _marks) internal pure returns (bytes32) {\r\n        bytes32[] memory hashes = new bytes32[](_marks.length);\r\n        for (uint i = 0; i < _marks.length; i++) {\r\n            hashes[i] = keccak256(abi.encodePacked(_marks[i]));\r\n        }\r\n        return calculateRootHash(hashes);\r\n    }\r\n\r\n    // Function to calculate root hash from leaf node hashes\r\n    function calculateRootHash(bytes32[] memory hashes) internal pure returns (bytes32) {\r\n        while (hashes.length > 1) {\r\n            uint length = hashes.length;\r\n            for (uint i = 0; i < length / 2; i++) {\r\n                hashes[i] = keccak256(abi.encodePacked(hashes[2 * i], hashes[2 * i + 1]));\r\n            }\r\n            if (length % 2 != 0) {\r\n                hashes[length / 2] = hashes[length - 1];\r\n            }\r\n            assembly {\r\n                mstore(hashes, div(length, 2))\r\n            }\r\n        }\r\n        return hashes[0];\r\n    }\r\n}\r\n",
  "sourcePath": "C:\\Users\\AMOGH S K\\blockchain-student-marks\\contracts\\StudentMarks.sol",
  "compiler": {
    "name": "solc",
    "version": "0.8.21+commit.d9974bed.Emscripten.clang"
  },
  "schemaVersion": "3.4.16",
  "updatedAt": "2024-05-17T04:28:00.740Z",
  "networkType": "ethereum",
  "devdoc": {
    "kind": "dev",
    "methods": {},
    "version": 1
  },
  "userdoc": {
    "kind": "user",
    "methods": {},
    "version": 1
  }
}